{
  "_format": "hh-sol-artifact-1",
  "contractName": "Enso",
  "sourceName": "contracts/Enso.sol",
  "abi": [
    {
      "inputs": [
        {
          "internalType": "string",
          "name": "name_",
          "type": "string"
        },
        {
          "internalType": "string",
          "name": "symbol_",
          "type": "string"
        },
        {
          "internalType": "address",
          "name": "_minter",
          "type": "address"
        },
        {
          "internalType": "uint256",
          "name": "_mintingAllowedAfter",
          "type": "uint256"
        }
      ],
      "stateMutability": "nonpayable",
      "type": "constructor"
    },
    {
      "anonymous": false,
      "inputs": [
        {
          "indexed": true,
          "internalType": "address",
          "name": "owner",
          "type": "address"
        },
        {
          "indexed": true,
          "internalType": "address",
          "name": "spender",
          "type": "address"
        },
        {
          "indexed": false,
          "internalType": "uint256",
          "name": "value",
          "type": "uint256"
        }
      ],
      "name": "Approval",
      "type": "event"
    },
    {
      "anonymous": false,
      "inputs": [
        {
          "indexed": true,
          "internalType": "address",
          "name": "delegator",
          "type": "address"
        },
        {
          "indexed": true,
          "internalType": "address",
          "name": "fromDelegate",
          "type": "address"
        },
        {
          "indexed": true,
          "internalType": "address",
          "name": "toDelegate",
          "type": "address"
        }
      ],
      "name": "DelegateChanged",
      "type": "event"
    },
    {
      "anonymous": false,
      "inputs": [
        {
          "indexed": true,
          "internalType": "address",
          "name": "delegate",
          "type": "address"
        },
        {
          "indexed": false,
          "internalType": "uint256",
          "name": "previousBalance",
          "type": "uint256"
        },
        {
          "indexed": false,
          "internalType": "uint256",
          "name": "newBalance",
          "type": "uint256"
        }
      ],
      "name": "DelegateVotesChanged",
      "type": "event"
    },
    {
      "anonymous": false,
      "inputs": [
        {
          "indexed": false,
          "internalType": "address",
          "name": "minter",
          "type": "address"
        },
        {
          "indexed": false,
          "internalType": "address",
          "name": "newMinter",
          "type": "address"
        }
      ],
      "name": "MinterChanged",
      "type": "event"
    },
    {
      "anonymous": false,
      "inputs": [
        {
          "indexed": true,
          "internalType": "address",
          "name": "from",
          "type": "address"
        },
        {
          "indexed": true,
          "internalType": "address",
          "name": "to",
          "type": "address"
        },
        {
          "indexed": false,
          "internalType": "uint256",
          "name": "value",
          "type": "uint256"
        }
      ],
      "name": "Transfer",
      "type": "event"
    },
    {
      "inputs": [],
      "name": "DOMAIN_SEPARATOR",
      "outputs": [
        {
          "internalType": "bytes32",
          "name": "",
          "type": "bytes32"
        }
      ],
      "stateMutability": "view",
      "type": "function"
    },
    {
      "inputs": [
        {
          "internalType": "address",
          "name": "owner",
          "type": "address"
        },
        {
          "internalType": "address",
          "name": "spender",
          "type": "address"
        }
      ],
      "name": "allowance",
      "outputs": [
        {
          "internalType": "uint256",
          "name": "",
          "type": "uint256"
        }
      ],
      "stateMutability": "view",
      "type": "function"
    },
    {
      "inputs": [
        {
          "internalType": "address",
          "name": "spender",
          "type": "address"
        },
        {
          "internalType": "uint256",
          "name": "amount",
          "type": "uint256"
        }
      ],
      "name": "approve",
      "outputs": [
        {
          "internalType": "bool",
          "name": "",
          "type": "bool"
        }
      ],
      "stateMutability": "nonpayable",
      "type": "function"
    },
    {
      "inputs": [
        {
          "internalType": "address",
          "name": "account",
          "type": "address"
        }
      ],
      "name": "balanceOf",
      "outputs": [
        {
          "internalType": "uint256",
          "name": "",
          "type": "uint256"
        }
      ],
      "stateMutability": "view",
      "type": "function"
    },
    {
      "inputs": [
        {
          "internalType": "uint256",
          "name": "_amount",
          "type": "uint256"
        }
      ],
      "name": "burn",
      "outputs": [],
      "stateMutability": "nonpayable",
      "type": "function"
    },
    {
      "inputs": [
        {
          "internalType": "address",
          "name": "_account",
          "type": "address"
        },
        {
          "internalType": "uint256",
          "name": "_amount",
          "type": "uint256"
        }
      ],
      "name": "burnFrom",
      "outputs": [],
      "stateMutability": "nonpayable",
      "type": "function"
    },
    {
      "inputs": [
        {
          "internalType": "address",
          "name": "account",
          "type": "address"
        },
        {
          "internalType": "uint32",
          "name": "pos",
          "type": "uint32"
        }
      ],
      "name": "checkpoints",
      "outputs": [
        {
          "components": [
            {
              "internalType": "uint32",
              "name": "fromBlock",
              "type": "uint32"
            },
            {
              "internalType": "uint224",
              "name": "votes",
              "type": "uint224"
            }
          ],
          "internalType": "struct ERC20Votes.Checkpoint",
          "name": "",
          "type": "tuple"
        }
      ],
      "stateMutability": "view",
      "type": "function"
    },
    {
      "inputs": [],
      "name": "decimals",
      "outputs": [
        {
          "internalType": "uint8",
          "name": "",
          "type": "uint8"
        }
      ],
      "stateMutability": "view",
      "type": "function"
    },
    {
      "inputs": [
        {
          "internalType": "address",
          "name": "spender",
          "type": "address"
        },
        {
          "internalType": "uint256",
          "name": "subtractedValue",
          "type": "uint256"
        }
      ],
      "name": "decreaseAllowance",
      "outputs": [
        {
          "internalType": "bool",
          "name": "",
          "type": "bool"
        }
      ],
      "stateMutability": "nonpayable",
      "type": "function"
    },
    {
      "inputs": [
        {
          "internalType": "address",
          "name": "delegatee",
          "type": "address"
        }
      ],
      "name": "delegate",
      "outputs": [],
      "stateMutability": "nonpayable",
      "type": "function"
    },
    {
      "inputs": [
        {
          "internalType": "address",
          "name": "delegatee",
          "type": "address"
        },
        {
          "internalType": "uint256",
          "name": "nonce",
          "type": "uint256"
        },
        {
          "internalType": "uint256",
          "name": "expiry",
          "type": "uint256"
        },
        {
          "internalType": "uint8",
          "name": "v",
          "type": "uint8"
        },
        {
          "internalType": "bytes32",
          "name": "r",
          "type": "bytes32"
        },
        {
          "internalType": "bytes32",
          "name": "s",
          "type": "bytes32"
        }
      ],
      "name": "delegateBySig",
      "outputs": [],
      "stateMutability": "nonpayable",
      "type": "function"
    },
    {
      "inputs": [
        {
          "internalType": "address",
          "name": "account",
          "type": "address"
        }
      ],
      "name": "delegates",
      "outputs": [
        {
          "internalType": "address",
          "name": "",
          "type": "address"
        }
      ],
      "stateMutability": "view",
      "type": "function"
    },
    {
      "inputs": [
        {
          "internalType": "address",
          "name": "account",
          "type": "address"
        }
      ],
      "name": "getCurrentVotes",
      "outputs": [
        {
          "internalType": "uint96",
          "name": "",
          "type": "uint96"
        }
      ],
      "stateMutability": "view",
      "type": "function"
    },
    {
      "inputs": [
        {
          "internalType": "uint256",
          "name": "blockNumber",
          "type": "uint256"
        }
      ],
      "name": "getPastTotalSupply",
      "outputs": [
        {
          "internalType": "uint256",
          "name": "",
          "type": "uint256"
        }
      ],
      "stateMutability": "view",
      "type": "function"
    },
    {
      "inputs": [
        {
          "internalType": "address",
          "name": "account",
          "type": "address"
        },
        {
          "internalType": "uint256",
          "name": "blockNumber",
          "type": "uint256"
        }
      ],
      "name": "getPastVotes",
      "outputs": [
        {
          "internalType": "uint256",
          "name": "",
          "type": "uint256"
        }
      ],
      "stateMutability": "view",
      "type": "function"
    },
    {
      "inputs": [
        {
          "internalType": "address",
          "name": "account",
          "type": "address"
        },
        {
          "internalType": "uint256",
          "name": "blockNumber",
          "type": "uint256"
        }
      ],
      "name": "getPriorVotes",
      "outputs": [
        {
          "internalType": "uint96",
          "name": "",
          "type": "uint96"
        }
      ],
      "stateMutability": "view",
      "type": "function"
    },
    {
      "inputs": [
        {
          "internalType": "address",
          "name": "account",
          "type": "address"
        }
      ],
      "name": "getVotes",
      "outputs": [
        {
          "internalType": "uint256",
          "name": "",
          "type": "uint256"
        }
      ],
      "stateMutability": "view",
      "type": "function"
    },
    {
      "inputs": [
        {
          "internalType": "address",
          "name": "spender",
          "type": "address"
        },
        {
          "internalType": "uint256",
          "name": "addedValue",
          "type": "uint256"
        }
      ],
      "name": "increaseAllowance",
      "outputs": [
        {
          "internalType": "bool",
          "name": "",
          "type": "bool"
        }
      ],
      "stateMutability": "nonpayable",
      "type": "function"
    },
    {
      "inputs": [],
      "name": "minimumTimeBetweenMints",
      "outputs": [
        {
          "internalType": "uint32",
          "name": "",
          "type": "uint32"
        }
      ],
      "stateMutability": "view",
      "type": "function"
    },
    {
      "inputs": [
        {
          "internalType": "address",
          "name": "_account",
          "type": "address"
        },
        {
          "internalType": "uint256",
          "name": "_amount",
          "type": "uint256"
        }
      ],
      "name": "mint",
      "outputs": [],
      "stateMutability": "nonpayable",
      "type": "function"
    },
    {
      "inputs": [],
      "name": "mintCap",
      "outputs": [
        {
          "internalType": "uint8",
          "name": "",
          "type": "uint8"
        }
      ],
      "stateMutability": "view",
      "type": "function"
    },
    {
      "inputs": [],
      "name": "mintCapUpdated",
      "outputs": [
        {
          "internalType": "bool",
          "name": "",
          "type": "bool"
        }
      ],
      "stateMutability": "view",
      "type": "function"
    },
    {
      "inputs": [],
      "name": "minter",
      "outputs": [
        {
          "internalType": "address",
          "name": "",
          "type": "address"
        }
      ],
      "stateMutability": "view",
      "type": "function"
    },
    {
      "inputs": [],
      "name": "mintingAllowedAfter",
      "outputs": [
        {
          "internalType": "uint256",
          "name": "",
          "type": "uint256"
        }
      ],
      "stateMutability": "view",
      "type": "function"
    },
    {
      "inputs": [],
      "name": "name",
      "outputs": [
        {
          "internalType": "string",
          "name": "",
          "type": "string"
        }
      ],
      "stateMutability": "view",
      "type": "function"
    },
    {
      "inputs": [
        {
          "internalType": "address",
          "name": "owner",
          "type": "address"
        }
      ],
      "name": "nonces",
      "outputs": [
        {
          "internalType": "uint256",
          "name": "",
          "type": "uint256"
        }
      ],
      "stateMutability": "view",
      "type": "function"
    },
    {
      "inputs": [
        {
          "internalType": "address",
          "name": "account",
          "type": "address"
        }
      ],
      "name": "numCheckpoints",
      "outputs": [
        {
          "internalType": "uint32",
          "name": "",
          "type": "uint32"
        }
      ],
      "stateMutability": "view",
      "type": "function"
    },
    {
      "inputs": [
        {
          "internalType": "address",
          "name": "owner",
          "type": "address"
        },
        {
          "internalType": "address",
          "name": "spender",
          "type": "address"
        },
        {
          "internalType": "uint256",
          "name": "value",
          "type": "uint256"
        },
        {
          "internalType": "uint256",
          "name": "deadline",
          "type": "uint256"
        },
        {
          "internalType": "uint8",
          "name": "v",
          "type": "uint8"
        },
        {
          "internalType": "bytes32",
          "name": "r",
          "type": "bytes32"
        },
        {
          "internalType": "bytes32",
          "name": "s",
          "type": "bytes32"
        }
      ],
      "name": "permit",
      "outputs": [],
      "stateMutability": "nonpayable",
      "type": "function"
    },
    {
      "inputs": [],
      "name": "symbol",
      "outputs": [
        {
          "internalType": "string",
          "name": "",
          "type": "string"
        }
      ],
      "stateMutability": "view",
      "type": "function"
    },
    {
      "inputs": [],
      "name": "totalSupply",
      "outputs": [
        {
          "internalType": "uint256",
          "name": "",
          "type": "uint256"
        }
      ],
      "stateMutability": "view",
      "type": "function"
    },
    {
      "inputs": [
        {
          "internalType": "address",
          "name": "recipient",
          "type": "address"
        },
        {
          "internalType": "uint256",
          "name": "amount",
          "type": "uint256"
        }
      ],
      "name": "transfer",
      "outputs": [
        {
          "internalType": "bool",
          "name": "",
          "type": "bool"
        }
      ],
      "stateMutability": "nonpayable",
      "type": "function"
    },
    {
      "inputs": [
        {
          "internalType": "address",
          "name": "sender",
          "type": "address"
        },
        {
          "internalType": "address",
          "name": "recipient",
          "type": "address"
        },
        {
          "internalType": "uint256",
          "name": "amount",
          "type": "uint256"
        }
      ],
      "name": "transferFrom",
      "outputs": [
        {
          "internalType": "bool",
          "name": "",
          "type": "bool"
        }
      ],
      "stateMutability": "nonpayable",
      "type": "function"
    },
    {
      "inputs": [
        {
          "internalType": "uint8",
          "name": "_mintCap",
          "type": "uint8"
        }
      ],
      "name": "updateMintCap",
      "outputs": [],
      "stateMutability": "nonpayable",
      "type": "function"
    },
    {
      "inputs": [
        {
          "internalType": "address",
          "name": "_minter",
          "type": "address"
        }
      ],
      "name": "updateMinter",
      "outputs": [],
      "stateMutability": "nonpayable",
      "type": "function"
    }
  ],
  "bytecode": "0x6101606040527f6e71edae12b1b97f4d1f60370fef10105fa2faae0126114a169c64845d6126c961014052600b805460ff191660021790553480156200004457600080fd5b506040516200319738038062003197833981016040819052620000679162000937565b8380604051806040016040528060018152602001603160f81b815250868681600390805190602001906200009d929190620007ce565b508051620000b3906004906020840190620007ce565b5050825160209384012082519284019290922060e08390526101008190524660a0818152604080517f8b73c3c69bb8fe3d512ecc4cf759cc79239f7b179b0ffacaa9a75d522b39400f818901819052818301979097526060810194909452608080850193909352308483018190528151808603909301835260c09485019091528151919096012090529290925261012052505042811015620001b25760405162461bcd60e51b815260206004820152602d60248201527f456e736f3a206d696e74696e672063616e206f6e6c7920626567696e2061667460448201526c195c8819195c1b1bde5b595b9d609a1b60648201526084015b60405180910390fd5b600a819055600980546001600160a01b0319166001600160a01b038416179055620001e9826a52b7d2dcc80cd2e4000000620001f3565b5050505062000a68565b6200020a8282620002a460201b620011c11760201c565b6001600160601b036200021c60025490565b1115620002855760405162461bcd60e51b815260206004820152603060248201527f4552433230566f7465733a20746f74616c20737570706c79207269736b73206f60448201526f766572666c6f77696e6720766f74657360801b6064820152608401620001a9565b6200029e6008620012a86200039760201b1783620003ac565b50505050565b6001600160a01b038216620002fc5760405162461bcd60e51b815260206004820152601f60248201527f45524332303a206d696e7420746f20746865207a65726f2061646472657373006044820152606401620001a9565b8060026000828254620003109190620009e0565b90915550506001600160a01b038216600090815260208190526040812080548392906200033f908490620009e0565b90915550506040518181526001600160a01b038316906000907fddf252ad1be2c89b69c2b068fc378daa952ba7f163c4a11628f55a4df523b3ef9060200160405180910390a3620003936000838362000563565b5050565b6000620003a58284620009e0565b9392505050565b825460009081908015620003fe5785620003c8600183620009fb565b81548110620003db57620003db62000a15565b60009182526020909120015464010000000090046001600160e01b031662000401565b60005b6001600160e01b031692506200041883858760201c565b91506000811180156200045c5750438662000435600184620009fb565b8154811062000448576200044862000a15565b60009182526020909120015463ffffffff16145b15620004d0576200047882620005af60201b620012b41760201c565b8662000486600184620009fb565b8154811062000499576200049962000a15565b9060005260206000200160000160046101000a8154816001600160e01b0302191690836001600160e01b0316021790555062000555565b856040518060400160405280620004f2436200061e60201b620013371760201c565b63ffffffff1681526020016200051385620005af60201b620012b41760201c565b6001600160e01b0390811690915282546001810184556000938452602093849020835194909301519091166401000000000263ffffffff909316929092179101555b50935093915050565b505050565b6200057b8383836200055e60201b62000cc21760201c565b6001600160a01b038381166000908152600660205260408082205485841683529120546200055e9291821691168362000685565b60006001600160e01b038211156200061a5760405162461bcd60e51b815260206004820152602760248201527f53616665436173743a2076616c756520646f65736e27742066697420696e20326044820152663234206269747360c81b6064820152608401620001a9565b5090565b600063ffffffff8211156200061a5760405162461bcd60e51b815260206004820152602660248201527f53616665436173743a2076616c756520646f65736e27742066697420696e203360448201526532206269747360d01b6064820152608401620001a9565b816001600160a01b0316836001600160a01b031614158015620006a85750600081115b156200055e576001600160a01b0383161562000735576001600160a01b038316600090815260076020908152604082208291620006f29190620007c0901b620013b31785620003ac565b91509150846001600160a01b03166000805160206200317783398151915283836040516200072a929190918252602082015260400190565b60405180910390a250505b6001600160a01b038216156200055e576001600160a01b03821660009081526007602090815260408220829162000779919062000397901b620012a81785620003ac565b91509150836001600160a01b0316600080516020620031778339815191528383604051620007b1929190918252602082015260400190565b60405180910390a25050505050565b6000620003a58284620009fb565b828054620007dc9062000a2b565b90600052602060002090601f0160209004810192826200080057600085556200084b565b82601f106200081b57805160ff19168380011785556200084b565b828001600101855582156200084b579182015b828111156200084b5782518255916020019190600101906200082e565b506200061a9291505b808211156200061a576000815560010162000854565b634e487b7160e01b600052604160045260246000fd5b600082601f8301126200089257600080fd5b81516001600160401b0380821115620008af57620008af6200086a565b604051601f8301601f19908116603f01168101908282118183101715620008da57620008da6200086a565b81604052838152602092508683858801011115620008f757600080fd5b600091505b838210156200091b5785820183015181830184015290820190620008fc565b838211156200092d5760008385830101525b9695505050505050565b600080600080608085870312156200094e57600080fd5b84516001600160401b03808211156200096657600080fd5b620009748883890162000880565b955060208701519150808211156200098b57600080fd5b506200099a8782880162000880565b604087015190945090506001600160a01b0381168114620009ba57600080fd5b6060959095015193969295505050565b634e487b7160e01b600052601160045260246000fd5b60008219821115620009f657620009f6620009ca565b500190565b60008282101562000a105762000a10620009ca565b500390565b634e487b7160e01b600052603260045260246000fd5b600181811c9082168062000a4057607f821691505b6020821081141562000a6257634e487b7160e01b600052602260045260246000fd5b50919050565b60805160a05160c05160e0516101005161012051610140516126b462000ac3600039600061102d015260006117c401526000611813015260006117ee01526000611747015260006117710152600061179b01526126b46000f3fe608060405234801561001057600080fd5b50600436106102265760003560e01c80636fcfff451161012a5780639ab24eb0116100bd578063c3cda5201161008c578063dd62ed3e11610071578063dd62ed3e146104e1578063e8bf25a51461051a578063f1127ed81461052c57600080fd5b8063c3cda520146104bb578063d505accf146104ce57600080fd5b80639ab24eb01461046f578063a457c2d714610482578063a9059cbb14610495578063b4b5ea57146104a857600080fd5b806379cc6790116100f957806379cc67901461042e5780637ecebe00146104415780638e539e8c1461045457806395d89b411461046757600080fd5b80636fcfff45146103b557806370a08231146103c857806376c71ca1146103f1578063782d6fe1146103fe57600080fd5b806339509351116101bd5780634eb03f6e1161018c5780635c11d62f116101715780635c11d62f1461036f5780635c19a95c1461038f5780636181625a146103a257600080fd5b80634eb03f6e14610330578063587cde1e1461034357600080fd5b806339509351146102e25780633a46b1a8146102f557806340c10f191461030857806342966c681461031d57600080fd5b806323b872dd116101f957806323b872dd146102a957806330b36cef146102bc578063313ce567146102c55780633644e515146102da57600080fd5b806306fdde031461022b5780630754617214610249578063095ea7b31461027457806318160ddd14610297575b600080fd5b610233610569565b604051610240919061230d565b60405180910390f35b60095461025c906001600160a01b031681565b6040516001600160a01b039091168152602001610240565b61028761028236600461237e565b6105fb565b6040519015158152602001610240565b6002545b604051908152602001610240565b6102876102b73660046123a8565b610611565b61029b600a5481565b60125b60405160ff9091168152602001610240565b61029b6106d5565b6102876102f036600461237e565b6106e4565b61029b61030336600461237e565b610720565b61031b61031636600461237e565b61079a565b005b61031b61032b3660046123e4565b61099b565b61031b61033e3660046123fd565b6109a8565b61025c6103513660046123fd565b6001600160a01b039081166000908152600660205260409020541690565b61037a6301e1338081565b60405163ffffffff9091168152602001610240565b61031b61039d3660046123fd565b610aa9565b61031b6103b0366004612429565b610ab3565b61037a6103c33660046123fd565b610beb565b61029b6103d63660046123fd565b6001600160a01b031660009081526020819052604090205490565b600b546102c89060ff1681565b61041161040c36600461237e565b610c13565b6040516bffffffffffffffffffffffff9091168152602001610240565b61031b61043c36600461237e565b610c27565b61029b61044f3660046123fd565b610cc7565b61029b6104623660046123e4565b610ce5565b610233610d41565b61029b61047d3660046123fd565b610d50565b61028761049036600461237e565b610dd7565b6102876104a336600461237e565b610e88565b6104116104b63660046123fd565b610e95565b61031b6104c9366004612444565b610ea3565b61031b6104dc36600461249c565b610fd9565b61029b6104ef366004612506565b6001600160a01b03918216600090815260016020908152604080832093909416825291909152205490565b600b5461028790610100900460ff1681565b61053f61053a366004612539565b61113d565b60408051825163ffffffff1681526020928301516001600160e01b03169281019290925201610240565b60606003805461057890612579565b80601f01602080910402602001604051908101604052809291908181526020018280546105a490612579565b80156105f15780601f106105c6576101008083540402835291602001916105f1565b820191906000526020600020905b8154815290600101906020018083116105d457829003601f168201915b5050505050905090565b60006106083384846113bf565b50600192915050565b600061061e848484611517565b6001600160a01b0384166000908152600160209081526040808320338452909152902054828110156106bd5760405162461bcd60e51b815260206004820152602860248201527f45524332303a207472616e7366657220616d6f756e742065786365656473206160448201527f6c6c6f77616e636500000000000000000000000000000000000000000000000060648201526084015b60405180910390fd5b6106ca85338584036113bf565b506001949350505050565b60006106df61173a565b905090565b3360008181526001602090815260408083206001600160a01b0387168452909152812054909161060891859061071b9086906125c4565b6113bf565b60004382106107715760405162461bcd60e51b815260206004820152601f60248201527f4552433230566f7465733a20626c6f636b206e6f7420796574206d696e65640060448201526064016106b4565b6001600160a01b03831660009081526007602052604090206107939083611861565b9392505050565b600081116108105760405162461bcd60e51b815260206004820152602360248201527f456e736f236d696e743a2073686f756c6420626520677265617465722074686160448201527f6e2030000000000000000000000000000000000000000000000000000000000060648201526084016106b4565b6009546001600160a01b031633146108905760405162461bcd60e51b815260206004820152602360248201527f456e736f236d696e743a206f6e6c7920746865206d696e7465722063616e206d60448201527f696e74000000000000000000000000000000000000000000000000000000000060648201526084016106b4565b600a544210156109085760405162461bcd60e51b815260206004820152602260248201527f456e736f236d696e743a206d696e74696e67206e6f7420616c6c6f776564207960448201527f657400000000000000000000000000000000000000000000000000000000000060648201526084016106b4565b606461091360025490565b600b54610923919060ff166125dc565b61092d9190612619565b81111561097c5760405162461bcd60e51b815260206004820152601c60248201527f456e736f236d696e743a206578636565646564206d696e74206361700000000060448201526064016106b4565b61098a6301e13380426125c4565b600a55610997828261191e565b5050565b6109a533826119ba565b50565b6009546001600160a01b03163314610a285760405162461bcd60e51b815260206004820152603d60248201527f456e736f237365744d696e7465723a206f6e6c7920746865206d696e7465722060448201527f63616e206368616e676520746865206d696e746572206164647265737300000060648201526084016106b4565b600954604080516001600160a01b03928316815291831660208301527f3b0007eb941cf645526cbb3a4fdaecda9d28ce4843167d9263b536a1f1edc0f6910160405180910390a1600980547fffffffffffffffffffffffff0000000000000000000000000000000000000000166001600160a01b0392909216919091179055565b6109a533826119d2565b6009546001600160a01b03163314610b335760405162461bcd60e51b815260206004820152603660248201527f456e736f237570646174654d696e744361703a206f6e6c7920746865206d696e60448201527f7465722063616e206368616e6765206d696e744361700000000000000000000060648201526084016106b4565b600b54610100900460ff1615610bb15760405162461bcd60e51b815260206004820152602760248201527f456e736f237570646174654d696e744361703a206d696e43617020697320696d60448201527f6d757461626c650000000000000000000000000000000000000000000000000060648201526084016106b4565b600b805460ff929092167fffffffffffffffffffffffffffffffffffffffffffffffffffffffffffff000090921691909117610100179055565b6001600160a01b038116600090815260076020526040812054610c0d90611337565b92915050565b6000610793610c228484610720565b611a63565b6000610c3383336104ef565b905081811015610cab5760405162461bcd60e51b815260206004820152602c60248201527f456e736f236275726e46726f6d3a206275726e20616d6f756e7420657863656560448201527f647320616c6c6f77616e6365000000000000000000000000000000000000000060648201526084016106b4565b610cb883338484036113bf565b610cc283836119ba565b505050565b6001600160a01b038116600090815260056020526040812054610c0d565b6000438210610d365760405162461bcd60e51b815260206004820152601f60248201527f4552433230566f7465733a20626c6f636b206e6f7420796574206d696e65640060448201526064016106b4565b610c0d600883611861565b60606004805461057890612579565b6001600160a01b0381166000908152600760205260408120548015610dc4576001600160a01b0383166000908152600760205260409020610d9260018361263b565b81548110610da257610da2612652565b60009182526020909120015464010000000090046001600160e01b0316610dc7565b60005b6001600160e01b03169392505050565b3360009081526001602090815260408083206001600160a01b038616845290915281205482811015610e715760405162461bcd60e51b815260206004820152602560248201527f45524332303a2064656372656173656420616c6c6f77616e63652062656c6f7760448201527f207a65726f00000000000000000000000000000000000000000000000000000060648201526084016106b4565b610e7e33858584036113bf565b5060019392505050565b6000610608338484611517565b6000610c0d610c2283610d50565b83421115610ef35760405162461bcd60e51b815260206004820152601d60248201527f4552433230566f7465733a207369676e6174757265206578706972656400000060448201526064016106b4565b604080517fe48329057bfd03d55e49b547132e39cffd9c1820ad7b9d4c5307691425d15adf60208201526001600160a01b038816918101919091526060810186905260808101859052600090610f6d90610f659060a00160405160208183030381529060405280519060200120611ae7565b858585611b50565b9050610f7881611b78565b8614610fc65760405162461bcd60e51b815260206004820152601960248201527f4552433230566f7465733a20696e76616c6964206e6f6e63650000000000000060448201526064016106b4565b610fd081886119d2565b50505050505050565b834211156110295760405162461bcd60e51b815260206004820152601d60248201527f45524332305065726d69743a206578706972656420646561646c696e6500000060448201526064016106b4565b60007f00000000000000000000000000000000000000000000000000000000000000008888886110588c611b78565b6040805160208101969096526001600160a01b0394851690860152929091166060840152608083015260a082015260c0810186905260e00160405160208183030381529060405280519060200120905060006110b382611ae7565b905060006110c382878787611b50565b9050896001600160a01b0316816001600160a01b0316146111265760405162461bcd60e51b815260206004820152601e60248201527f45524332305065726d69743a20696e76616c6964207369676e6174757265000060448201526064016106b4565b6111318a8a8a6113bf565b50505050505050505050565b60408051808201909152600080825260208201526001600160a01b0383166000908152600760205260409020805463ffffffff841690811061118157611181612652565b60009182526020918290206040805180820190915291015463ffffffff8116825264010000000090046001600160e01b0316918101919091529392505050565b6001600160a01b0382166112175760405162461bcd60e51b815260206004820152601f60248201527f45524332303a206d696e7420746f20746865207a65726f20616464726573730060448201526064016106b4565b806002600082825461122991906125c4565b90915550506001600160a01b038216600090815260208190526040812080548392906112569084906125c4565b90915550506040518181526001600160a01b038316906000907fddf252ad1be2c89b69c2b068fc378daa952ba7f163c4a11628f55a4df523b3ef9060200160405180910390a361099760008383611ba0565b600061079382846125c4565b60006001600160e01b038211156113335760405162461bcd60e51b815260206004820152602760248201527f53616665436173743a2076616c756520646f65736e27742066697420696e203260448201527f323420626974730000000000000000000000000000000000000000000000000060648201526084016106b4565b5090565b600063ffffffff8211156113335760405162461bcd60e51b815260206004820152602660248201527f53616665436173743a2076616c756520646f65736e27742066697420696e203360448201527f322062697473000000000000000000000000000000000000000000000000000060648201526084016106b4565b6000610793828461263b565b6001600160a01b03831661143a5760405162461bcd60e51b8152602060048201526024808201527f45524332303a20617070726f76652066726f6d20746865207a65726f2061646460448201527f726573730000000000000000000000000000000000000000000000000000000060648201526084016106b4565b6001600160a01b0382166114b65760405162461bcd60e51b815260206004820152602260248201527f45524332303a20617070726f766520746f20746865207a65726f20616464726560448201527f737300000000000000000000000000000000000000000000000000000000000060648201526084016106b4565b6001600160a01b0383811660008181526001602090815260408083209487168084529482529182902085905590518481527f8c5be1e5ebec7d5bd14f71427d1e84f3dd0314c0f7b2291e5b200ac8c7c3b925910160405180910390a3505050565b6001600160a01b0383166115935760405162461bcd60e51b815260206004820152602560248201527f45524332303a207472616e736665722066726f6d20746865207a65726f20616460448201527f647265737300000000000000000000000000000000000000000000000000000060648201526084016106b4565b6001600160a01b03821661160f5760405162461bcd60e51b815260206004820152602360248201527f45524332303a207472616e7366657220746f20746865207a65726f206164647260448201527f657373000000000000000000000000000000000000000000000000000000000060648201526084016106b4565b6001600160a01b0383166000908152602081905260409020548181101561169e5760405162461bcd60e51b815260206004820152602660248201527f45524332303a207472616e7366657220616d6f756e742065786365656473206260448201527f616c616e6365000000000000000000000000000000000000000000000000000060648201526084016106b4565b6001600160a01b038085166000908152602081905260408082208585039055918516815290812080548492906116d59084906125c4565b92505081905550826001600160a01b0316846001600160a01b03167fddf252ad1be2c89b69c2b068fc378daa952ba7f163c4a11628f55a4df523b3ef8460405161172191815260200190565b60405180910390a3611734848484611ba0565b50505050565b6000306001600160a01b037f00000000000000000000000000000000000000000000000000000000000000001614801561179357507f000000000000000000000000000000000000000000000000000000000000000046145b156117bd57507f000000000000000000000000000000000000000000000000000000000000000090565b50604080517f00000000000000000000000000000000000000000000000000000000000000006020808301919091527f0000000000000000000000000000000000000000000000000000000000000000828401527f000000000000000000000000000000000000000000000000000000000000000060608301524660808301523060a0808401919091528351808403909101815260c0909201909252805191012090565b8154600090815b818110156118c557600061187c8284611bd2565b90508486828154811061189157611891612652565b60009182526020909120015463ffffffff1611156118b1578092506118bf565b6118bc8160016125c4565b91505b50611868565b811561190957846118d760018461263b565b815481106118e7576118e7612652565b60009182526020909120015464010000000090046001600160e01b031661190c565b60005b6001600160e01b031695945050505050565b61192882826111c1565b6002546bffffffffffffffffffffffff10156119ac5760405162461bcd60e51b815260206004820152603060248201527f4552433230566f7465733a20746f74616c20737570706c79207269736b73206f60448201527f766572666c6f77696e6720766f7465730000000000000000000000000000000060648201526084016106b4565b61173460086112a883611bed565b6119c48282611d66565b61173460086113b383611bed565b6001600160a01b038281166000818152600660208181526040808420805485845282862054949093528787167fffffffffffffffffffffffff00000000000000000000000000000000000000008416811790915590519190951694919391928592917f3134e8a2e6d97e929a7e54011ea5485d7d196dd5f0ba4d4ef95803e8e3fc257f9190a4611734828483611ef2565b60006bffffffffffffffffffffffff8211156113335760405162461bcd60e51b815260206004820152602660248201527f53616665436173743a2076616c756520646f65736e27742066697420696e203960448201527f362062697473000000000000000000000000000000000000000000000000000060648201526084016106b4565b6000610c0d611af461173a565b836040517f19010000000000000000000000000000000000000000000000000000000000006020820152602281018390526042810182905260009060620160405160208183030381529060405280519060200120905092915050565b6000806000611b618787878761202f565b91509150611b6e8161211c565b5095945050505050565b6001600160a01b03811660009081526005602052604090208054600181018255905b50919050565b6001600160a01b03838116600090815260066020526040808220548584168352912054610cc292918216911683611ef2565b6000611be16002848418612619565b610793908484166125c4565b825460009081908015611c385785611c0660018361263b565b81548110611c1657611c16612652565b60009182526020909120015464010000000090046001600160e01b0316611c3b565b60005b6001600160e01b03169250611c5483858763ffffffff16565b9150600081118015611c9257504386611c6e60018461263b565b81548110611c7e57611c7e612652565b60009182526020909120015463ffffffff16145b15611cf257611ca0826112b4565b86611cac60018461263b565b81548110611cbc57611cbc612652565b9060005260206000200160000160046101000a8154816001600160e01b0302191690836001600160e01b03160217905550611d5d565b856040518060400160405280611d0743611337565b63ffffffff168152602001611d1b856112b4565b6001600160e01b0390811690915282546001810184556000938452602093849020835194909301519091166401000000000263ffffffff909316929092179101555b50935093915050565b6001600160a01b038216611de25760405162461bcd60e51b815260206004820152602160248201527f45524332303a206275726e2066726f6d20746865207a65726f2061646472657360448201527f730000000000000000000000000000000000000000000000000000000000000060648201526084016106b4565b6001600160a01b03821660009081526020819052604090205481811015611e715760405162461bcd60e51b815260206004820152602260248201527f45524332303a206275726e20616d6f756e7420657863656564732062616c616e60448201527f636500000000000000000000000000000000000000000000000000000000000060648201526084016106b4565b6001600160a01b0383166000908152602081905260408120838303905560028054849290611ea090849061263b565b90915550506040518281526000906001600160a01b038516907fddf252ad1be2c89b69c2b068fc378daa952ba7f163c4a11628f55a4df523b3ef9060200160405180910390a3610cc283600084611ba0565b816001600160a01b0316836001600160a01b031614158015611f145750600081115b15610cc2576001600160a01b03831615611fa2576001600160a01b03831660009081526007602052604081208190611f4f906113b385611bed565b91509150846001600160a01b03167fdec2bacdd2f05b59de34da9b523dff8be42e5e38e818c82fdb0bae774387a7248383604051611f97929190918252602082015260400190565b60405180910390a250505b6001600160a01b03821615610cc2576001600160a01b03821660009081526007602052604081208190611fd8906112a885611bed565b91509150836001600160a01b03167fdec2bacdd2f05b59de34da9b523dff8be42e5e38e818c82fdb0bae774387a7248383604051612020929190918252602082015260400190565b60405180910390a25050505050565b6000807f7fffffffffffffffffffffffffffffff5d576e7357a4501ddfe92f46681b20a08311156120665750600090506003612113565b8460ff16601b1415801561207e57508460ff16601c14155b1561208f5750600090506004612113565b6040805160008082526020820180845289905260ff881692820192909252606081018690526080810185905260019060a0016020604051602081039080840390855afa1580156120e3573d6000803e3d6000fd5b5050604051601f1901519150506001600160a01b03811661210c57600060019250925050612113565b9150600090505b94509492505050565b600081600481111561213057612130612668565b14156121395750565b600181600481111561214d5761214d612668565b141561219b5760405162461bcd60e51b815260206004820152601860248201527f45434453413a20696e76616c6964207369676e6174757265000000000000000060448201526064016106b4565b60028160048111156121af576121af612668565b14156121fd5760405162461bcd60e51b815260206004820152601f60248201527f45434453413a20696e76616c6964207369676e6174757265206c656e6774680060448201526064016106b4565b600381600481111561221157612211612668565b14156122855760405162461bcd60e51b815260206004820152602260248201527f45434453413a20696e76616c6964207369676e6174757265202773272076616c60448201527f756500000000000000000000000000000000000000000000000000000000000060648201526084016106b4565b600481600481111561229957612299612668565b14156109a55760405162461bcd60e51b815260206004820152602260248201527f45434453413a20696e76616c6964207369676e6174757265202776272076616c60448201527f756500000000000000000000000000000000000000000000000000000000000060648201526084016106b4565b600060208083528351808285015260005b8181101561233a5785810183015185820160400152820161231e565b8181111561234c576000604083870101525b50601f01601f1916929092016040019392505050565b80356001600160a01b038116811461237957600080fd5b919050565b6000806040838503121561239157600080fd5b61239a83612362565b946020939093013593505050565b6000806000606084860312156123bd57600080fd5b6123c684612362565b92506123d460208501612362565b9150604084013590509250925092565b6000602082840312156123f657600080fd5b5035919050565b60006020828403121561240f57600080fd5b61079382612362565b803560ff8116811461237957600080fd5b60006020828403121561243b57600080fd5b61079382612418565b60008060008060008060c0878903121561245d57600080fd5b61246687612362565b9550602087013594506040870135935061248260608801612418565b92506080870135915060a087013590509295509295509295565b600080600080600080600060e0888a0312156124b757600080fd5b6124c088612362565b96506124ce60208901612362565b955060408801359450606088013593506124ea60808901612418565b925060a0880135915060c0880135905092959891949750929550565b6000806040838503121561251957600080fd5b61252283612362565b915061253060208401612362565b90509250929050565b6000806040838503121561254c57600080fd5b61255583612362565b9150602083013563ffffffff8116811461256e57600080fd5b809150509250929050565b600181811c9082168061258d57607f821691505b60208210811415611b9a57634e487b7160e01b600052602260045260246000fd5b634e487b7160e01b600052601160045260246000fd5b600082198211156125d7576125d76125ae565b500190565b6000817fffffffffffffffffffffffffffffffffffffffffffffffffffffffffffffffff0483118215151615612614576126146125ae565b500290565b60008261263657634e487b7160e01b600052601260045260246000fd5b500490565b60008282101561264d5761264d6125ae565b500390565b634e487b7160e01b600052603260045260246000fd5b634e487b7160e01b600052602160045260246000fdfea2646970667358221220291e614e3c403e4e69d8485581a8341d7996c15e403b678cd464ae93516b264864736f6c63430008090033dec2bacdd2f05b59de34da9b523dff8be42e5e38e818c82fdb0bae774387a724",
  "linkReferences": {},
  "deployedLinkReferences": {}
}